:100000000C945D000C9485000C9485000C94850084
:100010000C9485000C9485000C9485000C9485004C
:100020000C9485000C9485000C9485000C9485003C
:100030000C9485000C9485000C9485000C9485002C
:100040000C940C040C9485000C947C040C945604C1
:100050000C9485000C9485000C9485000C9485000C
:100060000C9485000C94850000000008000201003B
:100070000003040700000000000000000000000072
:10008000250028002B0000000000240027002A0083
:10009000040404040404040402020202020203032E
:1000A0000303030301020408102040800102040836
:1000B0001020010204081020270611241FBECFEFD4
:1000C000D8E0DEBFCDBF21E0A8E1B1E001C01D92C4
:1000D000AE3CB207E1F711E0A0E0B1E0EAE3FDE0F9
:1000E00002C005900D92A831B107D9F710E0CDE517
:1000F000D0E004C02197FE010E949006CC35D107C4
:10010000C9F70E94AE040C949B060C94000090E08A
:10011000FC01EC55FF4F2491FC01E057FF4F849107
:10012000882399F090E0880F991FFC01EA57FF4F50
:10013000A591B491FC01E458FF4F859194918FB73C
:10014000F894EC91E22BEC938FBF089590E0FC01C2
:10015000E859FF4F2491FC01EC55FF4F3491FC010D
:10016000E057FF4FE491EE2309F43CC0222339F11C
:10017000233091F038F42130A9F0223001F584B514
:100180008F7D12C0273091F02830A1F02430B9F4CF
:10019000809180008F7D03C0809180008F77809355
:1001A00080000DC084B58F7784BD09C08091B000F8
:1001B0008F7703C08091B0008F7D8093B000F0E016
:1001C000EE0FFF1FE458FF4FA591B4919FB7F8942D
:1001D000611104C08C913095382302C0EC913E2B04
:1001E0003C939FBF08951F93CF93DF93182FEB018C
:1001F0000E948700209711F460E004C0CF3FD10532
:1002000039F461E0812FDF91CF911F910C94A6000A
:10021000E12FF0E0E859FF4FE491E330F9F048F4C2
:10022000E130B9F0E230A1F584B5806284BDC8BD8B
:1002300034C0E730E9F0E83019F1E43049F5809155
:100240008000806280938000D0938B00C0938A00EE
:1002500024C084B5806884BDC7BD1FC08091800064
:10026000806880938000D0938900C093880015C077
:100270008091B00080688093B000C093B3000DC03F
:100280008091B00080628093B000C093B40005C03C
:10029000C038D1050CF0B5CFAFCFDF91CF911F9112
:1002A00008953FB7F8948091290190912A01A09177
:1002B0002B01B0912C0126B5A89B05C02F3F19F04A
:1002C0000196A11DB11D3FBFBA2FA92F982F8827D6
:1002D000820F911DA11DB11DBC01CD0142E0660F31
:1002E000771F881F991F4A95D1F708958F929F9283
:1002F000AF92BF92CF92DF92EF92FF926B017C019F
:100300000E9451014B015C01C114D104E104F104CC
:10031000F1F00E945101DC01CB0188199909AA0969
:10032000BB09883E9340A105B10570F321E0C21AD4
:10033000D108E108F10888EE880E83E0981EA11C20
:10034000B11CC114D104E104F10419F7DDCFFF9011
:10035000EF90DF90CF90BF90AF909F908F900895D7
:10036000CF92DF92EF92FF920F931F93CF93DF9381
:100370006C017A018B01C0E0D0E0CE15DF0581F081
:10038000D8016D918D01D601ED91FC910190F08124
:10039000E02DC6010995892B11F02196EECF7E0143
:1003A000C701DF91CF911F910F91FF90EF90DF90E8
:1003B000CF900895089580E090E00895FC01538D5A
:1003C000448D252F30E0842F90E0821B930B54172F
:1003D00010F0CF96089501970895FC01918D828DBC
:1003E000981761F0828DDF01A80FB11D5D968C9189
:1003F000928D9F5F9F73928F90E008958FEF9FEF94
:100400000895FC01918D828D981731F0828DE80F4F
:10041000F11D858D90E008958FEF9FEF08952FB720
:10042000F89480912D0190912E01A0912F01B0910F
:1004300030012FBF8093390190933A01A0933B0183
:10044000B0933C0181E391E00E94010297FF26C036
:100450002FB7F89480912D0190912E01A0912F013A
:10046000B09130012FBF4091390150913A01609114
:100470003B0170913C01841B950BA60BB70B40917F
:100480003501509136016091370170913801841720
:100490009507A607B707B0F28FEF9FEF0895FC010D
:1004A000918D228D892F90E0805C9F4F821B910956
:1004B0008F739927089581E391E00E944F0221E014
:1004C000892B09F420E0822F0895FC01848DDF013F
:1004D000A80FB11DA35ABF4F2C91848D90E00196B7
:1004E0008F739927848FA689B7892C93A089B189A6
:1004F0008C91837080648C93938D848D981306C047
:100500000288F389E02D80818F7D80830895EF92AA
:10051000FF920F931F93CF93DF93EC0181E0888FBD
:100520009B8D8C8D981305C0E889F989808185FDA4
:1005300026C0F62E0B8D10E00F5F1F4F0F73112793
:10054000E02E8C8DE8120CC00FB607FCFACFE889BC
:10055000F989808185FFF5CFCE010E946502F1CF38
:100560008B8DFE01E80FF11DE35AFF4FF0829FB71C
:10057000F8940B8FEA89FB89808180620AC09FB75B
:10058000F894EE89FF896083E889F9898081837016
:10059000806480839FBF81E090E0DF91CF911F91C5
:1005A0000F91FF90EF900895CF93DF93EC01888D2A
:1005B0008823C9F0EA89FB89808185FD05C0A88967
:1005C000B9898C9186FD0FC00FB607FCF5CF8081ED
:1005D00085FFF2CFA889B9898C9185FFEDCFCE0137
:1005E0000E946502E7CFDF91CF91089580E090E00F
:1005F000892B29F00E945B0281110C940000089560
:10060000009769F0FC0101900020E9F73197AF01F4
:10061000481B590BBC0181E391E00C94B00180E0D0
:1006200090E008950E9496067F928F929F92AF92DB
:10063000BF92CF92DF92EF92FF920F931F93CF93CF
:10064000DF93CDB7DEB7A1970FB6F894DEBF0FBE2C
:10065000CDBF81E391E00E944F02009709F4C8C02A
:1006600081E391E00E944F028C0138E2832E31E059
:10067000932E81E391E00E944F02181619060CF0A8
:1006800079C028E1A22E21E0B22E0E940F02FC01C7
:1006900097FD0DC08D32910509F46DC0C0970A9782
:1006A00008F469C081E391E00E94ED01EECFC12C16
:1006B000D12C7601F501C192D1925F018E169F0671
:1006C00021F781E391E00E94ED010A9791F682E122
:1006D00091E00E9400036801110FEE08FF08F7FE89
:1006E00025C06DE281E391E00E9487022227332733
:1006F000A9012C193D094E095F0919A28E010F5D50
:100700001F4F9AE0C92ED12CE12CF12CCA01B9015E
:10071000A70196010E946E06605DF80162938F0149
:10072000211531054105510589F71AC0A701960128
:1007300019A28E010F5D1F4F8AE0C82ED12CE12C2B
:10074000F12CCA01B901A70196010E946E06605DF5
:10075000F80162938F01211531054105510589F793
:10076000C8010E94000385E191E00E94000381E03E
:1007700090E03EC03DC0C12CD12C7601712CE130FF
:10078000F105E9F0ED32F105C1F0CF01C0970A970C
:10079000B0F4AAE0B0E0A70196010E9454066F01F0
:1007A000FF0FEE08FF08C60ED71EE81EF91E80E3F5
:1007B000C81AD108E108F10802C07724739481E3D4
:1007C00091E00E94ED010E940F02FC01C0970A9780
:1007D000B0F2E130F10599F2772009F46BCFF09493
:1007E000E094D094C094C11CD11CE11CF11C62CFD8
:1007F000A1960FB6F894DEBF0FBECDBFDF91CF91AB
:100800001F910F91FF90EF90DF90CF90BF90AF902E
:100810009F908F907F9008951F920F920FB60F9226
:1008200011242F933F938F939F93AF93BF93809106
:100830002D0190912E01A0912F01B09130013091A6
:10084000280123E0230F2D3720F40196A11DB11DAF
:1008500005C026E8230F0296A11DB11D2093280193
:1008600080932D0190932E01A0932F01B09330011E
:100870008091290190912A01A0912B01B0912C0126
:100880000196A11DB11D8093290190932A01A09387
:100890002B01B0932C01BF91AF919F918F913F910C
:1008A0002F910F900FBE0F901F9018951F920F92CF
:1008B0000FB60F9211242F933F934F935F936F9333
:1008C0007F938F939F93AF93BF93EF93FF9381E3B6
:1008D00091E00E946502FF91EF91BF91AF919F91CE
:1008E0008F917F916F915F914F913F912F910F90D9
:1008F0000FBE0F901F9018951F920F920FB60F9278
:1009000011242F938F939F93EF93FF93E0914101D5
:10091000F09142018081E0914701F091480182FD10
:1009200012C0908180914A018F5F8F7320914B019B
:10093000821751F0E0914A01F0E0EF5CFE4F958F95
:1009400080934A0101C08081FF91EF919F918F9127
:100950002F910F900FBE0F901F901895789484B52B
:10096000826084BD84B5816084BD85B5826085BDAB
:1009700085B5816085BD80916E00816080936E0039
:10098000109281008091810082608093810080912B
:1009900081008160809381008091800081608093DC
:1009A00080008091B10084608093B1008091B0009C
:1009B00081608093B00080917A00846080937A0097
:1009C00080917A00826080937A0080917A008160C1
:1009D00080937A0080917A00806880937A001092E8
:1009E000C100E0914101F091420182E08083E091F9
:1009F0003D01F0913E011082E0913F01F0914001F4
:100A00008FEC808310924901E0914501F0914601FD
:100A100086E08083E0914301F09144018081806110
:100A20008083E0914301F09144018081886080835C
:100A3000E0914301F0914401808180688083E091DE
:100A40004301F091440180818F7D808381E391E0B7
:100A50000E94D40289E00E9487008AE00E948700F9
:100A60008BE00E9487000E941403809118019091EE
:100A7000190181309105E9F08230910509F458C0DF
:100A8000892B09F0E1C060911A0170911B0189E086
:100A90000E94F30060911C0170911D018AE00E9488
:100AA000F30060911E0170911F018BE00E94F30022
:100AB000CBC060911C0170911D0189E00E94F30080
:100AC00060911E0170911F018AE00E94F300609105
:100AD0002001709121018BE00E94F30060911A01C6
:100AE00070911B01072E000C880B990B0E94760158
:100AF000609122017091230189E00E94F3006091CE
:100B00002401709125018AE00E94F3006091260182
:100B1000709127018BE00E94F30060911A0170919F
:100B20001B01072E000C880B990B0E9476018CC0CC
:100B3000C0E0D0E0BE0189E00E94F30060911A019C
:100B400070911B01072E000C880B990B0E947601F7
:100B50002196C11581E0D80769F70E941403892BFB
:100B600009F072C0CFEFD0E0BE018BE00E94F3002D
:100B700060911A0170911B01072E000C880B990BD4
:100B80000E947601219781F70E941403892B09F0B6
:100B90005BC000E010E0B8018AE00E94F3006091C1
:100BA0001A0170911B01072E000C880B990B0E94F3
:100BB00076010F5F1F4F011581E0180761F70E9452
:100BC0001403892B09F040C00FEF10E0B80189E051
:100BD0000E94F30060911A0170911B01072E000C16
:100BE000880B990B0E9476010150110979F70E9438
:100BF0001403892B49F5BE018BE00E94F30060913C
:100C00001A0170911B01072E000C880B990B0E9492
:100C100076012196C11581E0D80769F70E94140377
:100C2000892B91F4CFEFD0E0BE018AE00E94F3005F
:100C300060911A0170911B01072E000C880B990B13
:100C40000E947601219781F70E94F6020CCFE1E322
:100C5000F1E01382128288EE93E0A0E0B0E084839A
:100C60009583A683B78384E091E09183808385ECAC
:100C700090E09587848784EC90E09787868780EC66
:100C800090E0918B808B81EC90E0938B828B82EC57
:100C900090E0958B848B86EC90E0978B868B118E01
:100CA000128E138E148E08950E945F06A59F900DDC
:100CB000B49F900DA49F800D911D11240895A29FB3
:100CC000B001B39FC001A39F700D811D1124911D20
:100CD000B29F700D811D1124911D0895A1E21A2E5D
:100CE000AA1BBB1BFD010DC0AA1FBB1FEE1FFF1FD0
:100CF000A217B307E407F50720F0A21BB30BE40B20
:100D0000F50B661F771F881F991F1A9469F7609566
:100D10007095809590959B01AC01BD01CF01089520
:100D2000EE0FFF1F0590F491E02D099481E090E013
:0A0D3000F8940C949B06F894FFCF92
:100D3A00000000008702B001DE01D4024F02ED017B
:080D4A0001023120000D0A0036
:00000001FF
